020241929965867503000000028601000100000000000000000000IO016580100000000000000002400000000                                                                                                                                                                                                                                                                                                                                                                                         
112024001929I0165801O000000000 0000000      965867503NEVASA SA CORREDORES DE BOLSA ROSARIO NORTE                      LAS CONDES     ATENCIONCLIENTES@NEVASA.CL    56569999999560299999990100010000000000000                                                                                                                                                                                                                                                                      
21929I0165801O96586750313                                                                                                                                                      JBS USA LUX S A JBS USA FOOD                 US                                          9900000000000000000000000000334062651000000000000000000000000000000000000000000000000000000000000000000000000000000000000000000000000000000000000000000000000000000000000000000000000000000000000000000000
21929I0165801O96586750313                                                                                                                                                      SOCIEDAD QUIMICA Y MINERA DE C               US                                          9900000000000000000000000000034640249000000000000000000000000000000000000000000000000000000000000000000000000000000000000000000000000000000000000000000000000000000000000000000000000000000000000000000000
21929I0165801O96586750313                                                                                                                                                      AMERICA MOVIL S A DE C V GTD S               US                                          9900000000000000000000000000027129427000000000000000000000000000000000000000000000000000000000000000000000000000000000000000000000000000000000000000000000000000000000000000000000000000000000000000000000
21929I0165801O96586750313                                                                                                                                                      SUZANO AUSTRIA GMBH REG S BOND               US                                          9900000000000000000000000000026722531000000000000000000000000000000000000000000000000000000000000000000000000000000000000000000000000000000000000000000000000000000000000000000000000000000000000000000000
21929I0165801O96586750313                                                                                                                                                      UNITED STATES TREAS BDS                      US                                          9900000000000000000000000000021701335000000000000000000000000000000000000000000000000000000000000000000000000000000000000000000000000000000000000000000000000000000000000000000000000000000000000000000000
21929I0165801O96586750313                                                                                                                                                      REPUBLIC OF CHILE 5330 01                    US                                          9900000000000000000000000000017885600000000000000000000000000000000000000000000000000000000000000000000000000000000000000000000000000000000000000000000000000000000000000000000000000000000000000000000000
21929I0165801O96586750313                                                                                                                                                      SAUDI INTERNATIONAL BOND MTN                 US                                          9900000000000000000000000000016467270000000000000000000000000000000000000000000000000000000000000000000000000000000000000000000000000000000000000000000000000000000000000000000000000000000000000000000000
21929I0165801O96586750313                                                                                                                                                      COLOMBIA REP BD 8750 11                      US                                          9900000000000000000000000000012339324000000000000000000000000000000000000000000000000000000000000000000000000000000000000000000000000000000000000000000000000000000000000000000000000000000000000000000000
21929I0165801O96586750313                                                                                                                                                      GRUPO AVAL LTD REG S BOND ISIN               US                                          9900000000000000000000000000010257532000000000000000000000000000000000000000000000000000000000000000000000000000000000000000000000000000000000000000000000000000000000000000000000000000000000000000000000
21929I0165801O96586750313                                                                                                                                                      MULTIBANK INC ISINUSP69                      US                                          9900000000000000000000000000010188626000000000000000000000000000000000000000000000000000000000000000000000000000000000000000000000000000000000000000000000000000000000000000000000000000000000000000000000
21929I0165801O96586750313                                                                                                                                                      GRUPO KUO SAB DE CV REG S BOND               US                                          9900000000000000000000000000009036827000000000000000000000000000000000000000000000000000000000000000000000000000000000000000000000000000000000000000000000000000000000000000000000000000000000000000000000
21929I0165801O96586750313                                                                                                                                                      UNITED MEXICAN STS MEDIUM TER                US                                          9900000000000000000000000000007099409000000000000000000000000000000000000000000000000000000000000000000000000000000000000000000000000000000000000000000000000000000000000000000000000000000000000000000000
21929I0165801O96586750313                                                                                                                                                      CELULOSA ARAUCO Y CONSTITUCI                 US                                          9900000000000000000000000000007013452000000000000000000000000000000000000000000000000000000000000000000000000000000000000000000000000000000000000000000000000000000000000000000000000000000000000000000000
21929I0165801O96586750313                                                                                                                                                      COLOMBIA REP BD 8000 11                      US                                          9900000000000000000000000000006602959000000000000000000000000000000000000000000000000000000000000000000000000000000000000000000000000000000000000000000000000000000000000000000000000000000000000000000000
21929I0165801O96586750313                                                                                                                                                      REPUBLIC OF SERBIA ISINXS258                 US                                          9900000000000000000000000000006368768000000000000000000000000000000000000000000000000000000000000000000000000000000000000000000000000000000000000000000000000000000000000000000000000000000000000000000000
21929I0165801O96586750313                                                                                                                                                      BANCO MERCANTIL DEL NORTE SA B               US                                          9900000000000000000000000000005249861000000000000000000000000000000000000000000000000000000000000000000000000000000000000000000000000000000000000000000000000000000000000000000000000000000000000000000000
21929I0165801O96586750313                                                                                                                                                      REPUBLIC OF INDONSEIA                        US                                          9900000000000000000000000000004624177000000000000000000000000000000000000000000000000000000000000000000000000000000000000000000000000000000000000000000000000000000000000000000000000000000000000000000000
21929I0165801O96586750313                                                                                                                                                      UNITED MEXICAN STS SR NT                     US                                          9900000000000000000000000000004215000000000000000000000000000000000000000000000000000000000000000000000000000000000000000000000000000000000000000000000000000000000000000000000000000000000000000000000000
21929I0165801O96586750313                                                                                                                                                      OPERADORA DE SERVICIOS                       US                                          9900000000000000000000000000003918972000000000000000000000000000000000000000000000000000000000000000000000000000000000000000000000000000000000000000000000000000000000000000000000000000000000000000000000
21929I0165801O96586750313                                                                                                                                                      BANCO DO BRASIL GA GRAND CAYM                US                                          9900000000000000000000000000003627084000000000000000000000000000000000000000000000000000000000000000000000000000000000000000000000000000000000000000000000000000000000000000000000000000000000000000000000
21929I0165801O96586750313                                                                                                                                                      BANCO GENERAL SA 5250 05                     US                                          9900000000000000000000000000003379719000000000000000000000000000000000000000000000000000000000000000000000000000000000000000000000000000000000000000000000000000000000000000000000000000000000000000000000
21929I0165801O96586750313                                                                                                                                                      ECOPETROL S A NT ISINUS279                   US                                          9900000000000000000000000000003245783000000000000000000000000000000000000000000000000000000000000000000000000000000000000000000000000000000000000000000000000000000000000000000000000000000000000000000000
21929I0165801O96586750313                                                                                                                                                      PETROLEOS MEXICANOS PEMEX                    US                                          9900000000000000000000000000003233064000000000000000000000000000000000000000000000000000000000000000000000000000000000000000000000000000000000000000000000000000000000000000000000000000000000000000000000
21929I0165801O96586750313                                                                                                                                                      SAN MIGUEL INDUSTRIAS                        US                                          9900000000000000000000000000003132581000000000000000000000000000000000000000000000000000000000000000000000000000000000000000000000000000000000000000000000000000000000000000000000000000000000000000000000
21929I0165801O96586750313                                                                                                                                                      CAP S A NT REG S 3900 04                     US                                          9900000000000000000000000000002878401000000000000000000000000000000000000000000000000000000000000000000000000000000000000000000000000000000000000000000000000000000000000000000000000000000000000000000000
21929I0165801O96586750313                                                                                                                                                      COSAN LUXEMBOURG S A REG S BON               US                                          9900000000000000000000000000002848298000000000000000000000000000000000000000000000000000000000000000000000000000000000000000000000000000000000000000000000000000000000000000000000000000000000000000000000
21929I0165801O96586750313                                                                                                                                                      BANCO INTERNATIONAL DEL PERU S               US                                          9900000000000000000000000000002647183000000000000000000000000000000000000000000000000000000000000000000000000000000000000000000000000000000000000000000000000000000000000000000000000000000000000000000000
21929I0165801O96586750313                                                                                                                                                      ENEL GENERACION CHILE SA                     US                                          9900000000000000000000000000002603292000000000000000000000000000000000000000000000000000000000000000000000000000000000000000000000000000000000000000000000000000000000000000000000000000000000000000000000
21929I0165801O96586750313                                                                                                                                                      AES ANDES SA ISINUSP06                       US                                          9900000000000000000000000000002375495000000000000000000000000000000000000000000000000000000000000000000000000000000000000000000000000000000000000000000000000000000000000000000000000000000000000000000000
21929I0165801O96586750313                                                                                                                                                      UNITED STATES TREAS BILLS                    US                                          9900000000000000000000000000002305992000000000000000000000000000000000000000000000000000000000000000000000000000000000000000000000000000000000000000000000000000000000000000000000000000000000000000000000
21929I0165801O96586750313                                                                                                                                                      UNITED MEXICAN STS SR NT                     US                                          9900000000000000000000000000002168241000000000000000000000000000000000000000000000000000000000000000000000000000000000000000000000000000000000000000000000000000000000000000000000000000000000000000000000
21929I0165801O96586750313                                                                                                                                                      PETROBRAS GLOBAL FINBV GTD GLO               US                                          9900000000000000000000000000002048952000000000000000000000000000000000000000000000000000000000000000000000000000000000000000000000000000000000000000000000000000000000000000000000000000000000000000000000
21929I0165801O96586750313                                                                                                                                                      INVERSIONES LATIN AMERICA PO                 US                                          9900000000000000000000000000002010982000000000000000000000000000000000000000000000000000000000000000000000000000000000000000000000000000000000000000000000000000000000000000000000000000000000000000000000
21929I0165801O96586750313                                                                                                                                                      TRANSNET LTD MEDIUM TERM NOTES               US                                          9900000000000000000000000000001989308000000000000000000000000000000000000000000000000000000000000000000000000000000000000000000000000000000000000000000000000000000000000000000000000000000000000000000000
21929I0165801O96586750313                                                                                                                                                      REPUBLIC OF INDONSEIA                        US                                          9900000000000000000000000000001894579000000000000000000000000000000000000000000000000000000000000000000000000000000000000000000000000000000000000000000000000000000000000000000000000000000000000000000000
21929I0165801O96586750313                                                                                                                                                      PHILIPPINES REP GLOBAL BD                    US                                          9900000000000000000000000000001873528000000000000000000000000000000000000000000000000000000000000000000000000000000000000000000000000000000000000000000000000000000000000000000000000000000000000000000000
21929I0165801O96586750313                                                                                                                                                      TERMOCANDELARIA PWR LTD GTD NT               US                                          9900000000000000000000000000001780404000000000000000000000000000000000000000000000000000000000000000000000000000000000000000000000000000000000000000000000000000000000000000000000000000000000000000000000
21929I0165801O96586750313                                                                                                                                                      GRUPOSURA FINANCE REG S BOND                 US                                          9900000000000000000000000000001734417000000000000000000000000000000000000000000000000000000000000000000000000000000000000000000000000000000000000000000000000000000000000000000000000000000000000000000000
21929I0165801O96586750313                                                                                                                                                      TELEFONICA MOVILES CHILE                     US                                          9900000000000000000000000000001722830000000000000000000000000000000000000000000000000000000000000000000000000000000000000000000000000000000000000000000000000000000000000000000000000000000000000000000000
21929I0165801O96586750313                                                                                                                                                      KINGDOM OF SAUDI ARABIA                      US                                          9900000000000000000000000000001717401000000000000000000000000000000000000000000000000000000000000000000000000000000000000000000000000000000000000000000000000000000000000000000000000000000000000000000000
21929I0165801O96586750313                                                                                                                                                      BANCO GNB SUDAMERIS ISINUSP12                US                                          9900000000000000000000000000001667405000000000000000000000000000000000000000000000000000000000000000000000000000000000000000000000000000000000000000000000000000000000000000000000000000000000000000000000
21929I0165801O96586750313                                                                                                                                                      MONGOLIA GOVT BD REG S                       US                                          9900000000000000000000000000001575308000000000000000000000000000000000000000000000000000000000000000000000000000000000000000000000000000000000000000000000000000000000000000000000000000000000000000000000
21929I0165801O96586750313                                                                                                                                                      BANK AMER CORP DEP SHS REPSTG                US                                          9900000000000000000000000000001466738000000000000000000000000000000000000000000000000000000000000000000000000000000000000000000000000000000000000000000000000000000000000000000000000000000000000000000000
21929I0165801O96586750313                                                                                                                                                      JPMORGAN CHASE CO DEP SHS RE                 US                                          9900000000000000000000000000001364413000000000000000000000000000000000000000000000000000000000000000000000000000000000000000000000000000000000000000000000000000000000000000000000000000000000000000000000
21929I0165801O96586750313                                                                                                                                                      MC BRAZIL DOWNSTREAMTRADING SA               US                                          9900000000000000000000000000001349151000000000000000000000000000000000000000000000000000000000000000000000000000000000000000000000000000000000000000000000000000000000000000000000000000000000000000000000
21929I0165801O96586750313                                                                                                                                                      INVERSIONES CMPC SA ISINUSP58                US                                          9900000000000000000000000000001313926000000000000000000000000000000000000000000000000000000000000000000000000000000000000000000000000000000000000000000000000000000000000000000000000000000000000000000000
21929I0165801O96586750313                                                                                                                                                      REPUBLIK BULGARIEN ISINXS271                 US                                          9900000000000000000000000000001256036000000000000000000000000000000000000000000000000000000000000000000000000000000000000000000000000000000000000000000000000000000000000000000000000000000000000000000000
21929I0165801O96586750313                                                                                                                                                      SOCIETE GENERALE SA ISINUS833                US                                          9900000000000000000000000000001219197000000000000000000000000000000000000000000000000000000000000000000000000000000000000000000000000000000000000000000000000000000000000000000000000000000000000000000000
21929I0165801O96586750313                                                                                                                                                      INVERSIONES ATLANTIDATLANTID S               US                                          9900000000000000000000000000001199023000000000000000000000000000000000000000000000000000000000000000000000000000000000000000000000000000000000000000000000000000000000000000000000000000000000000000000000
21929I0165801O96586750313                                                                                                                                                      BANCO BTG PACTUAL SA CAYMAN                  US                                          9900000000000000000000000000001177972000000000000000000000000000000000000000000000000000000000000000000000000000000000000000000000000000000000000000000000000000000000000000000000000000000000000000000000
21929I0165801O96586750313                                                                                                                                                      UNITED STS TREAS NTS 1875 02                 US                                          9900000000000000000000000000001173972000000000000000000000000000000000000000000000000000000000000000000000000000000000000000000000000000000000000000000000000000000000000000000000000000000000000000000000
21929I0165801O96586750313                                                                                                                                                      BRASKEM IDESA S A P I SR SECD                US                                          9900000000000000000000000000001161307000000000000000000000000000000000000000000000000000000000000000000000000000000000000000000000000000000000000000000000000000000000000000000000000000000000000000000000
21929I0165801O96586750313                                                                                                                                                      EMPRESAS PUBLICAS DEMEDELLIN E               US                                          9900000000000000000000000000001156377000000000000000000000000000000000000000000000000000000000000000000000000000000000000000000000000000000000000000000000000000000000000000000000000000000000000000000000
21929I0165801O96586750313                                                                                                                                                      YPF SA ISINUSP98                             US                                          9900000000000000000000000000001156044000000000000000000000000000000000000000000000000000000000000000000000000000000000000000000000000000000000000000000000000000000000000000000000000000000000000000000000
21929I0165801O96586750313                                                                                                                                                      BANCO MERCANTILE DELNORTE SA G               US                                          9900000000000000000000000000001146247000000000000000000000000000000000000000000000000000000000000000000000000000000000000000000000000000000000000000000000000000000000000000000000000000000000000000000000
21929I0165801O96586750313                                                                                                                                                      NEXA RESOURCES SA SR REGS NT                 US                                          9900000000000000000000000000001140151000000000000000000000000000000000000000000000000000000000000000000000000000000000000000000000000000000000000000000000000000000000000000000000000000000000000000000000
21929I0165801O96586750313                                                                                                                                                      GEOPARK LTD REG S BOND ISINUS                US                                          9900000000000000000000000000001136090000000000000000000000000000000000000000000000000000000000000000000000000000000000000000000000000000000000000000000000000000000000000000000000000000000000000000000000
21929I0165801O96586750313                                                                                                                                                      NOMURA 24 MONTH MEM COUP N                   US                                          9900000000000000000000000000001092014000000000000000000000000000000000000000000000000000000000000000000000000000000000000000000000000000000000000000000000000000000000000000000000000000000000000000000000
21929I0165801O96586750313                                                                                                                                                      BRF SA SR NT REG S ISINUSP19                 US                                          9900000000000000000000000000001090260000000000000000000000000000000000000000000000000000000000000000000000000000000000000000000000000000000000000000000000000000000000000000000000000000000000000000000000
21929I0165801O96586750313                                                                                                                                                      CENCOSUD SA GTD SR NT                        US                                          9900000000000000000000000000001082559000000000000000000000000000000000000000000000000000000000000000000000000000000000000000000000000000000000000000000000000000000000000000000000000000000000000000000000
21929I0165801O96586750313                                                                                                                                                      BANCO GNB SUDAMERIS ISINUSP12                US                                          9900000000000000000000000000001079296000000000000000000000000000000000000000000000000000000000000000000000000000000000000000000000000000000000000000000000000000000000000000000000000000000000000000000000
21929I0165801O96586750313                                                                                                                                                      ECOPETROL S A NT                             US                                          9900000000000000000000000000001072586000000000000000000000000000000000000000000000000000000000000000000000000000000000000000000000000000000000000000000000000000000000000000000000000000000000000000000000
21929I0165801O96586750313                                                                                                                                                      PETROLEOS MEXICANOS GTD NT REG               US                                          9900000000000000000000000000001068332000000000000000000000000000000000000000000000000000000000000000000000000000000000000000000000000000000000000000000000000000000000000000000000000000000000000000000000
21929I0165801O96586750313                                                                                                                                                      PETROLEOS MEXICANOS PEMEX REG                US                                          9900000000000000000000000000001068332000000000000000000000000000000000000000000000000000000000000000000000000000000000000000000000000000000000000000000000000000000000000000000000000000000000000000000000
21929I0165801O96586750313                                                                                                                                                      REPUBLIC OF SERBIA ISINXS258                 US                                          9900000000000000000000000000001049036000000000000000000000000000000000000000000000000000000000000000000000000000000000000000000000000000000000000000000000000000000000000000000000000000000000000000000000
21929I0165801O96586750313                                                                                                                                                      INKIA ENERGY LTD SR REGS NT                  US                                          9900000000000000000000000000001042896000000000000000000000000000000000000000000000000000000000000000000000000000000000000000000000000000000000000000000000000000000000000000000000000000000000000000000000
21929I0165801O96586750313                                                                                                                                                      ARIS MINING CORP ISINUSC41                   US                                          9900000000000000000000000000000996759000000000000000000000000000000000000000000000000000000000000000000000000000000000000000000000000000000000000000000000000000000000000000000000000000000000000000000000
21929I0165801O96586750313                                                                                                                                                      ECOPETROL S A NT 6875 04                     US                                          9900000000000000000000000000000994654000000000000000000000000000000000000000000000000000000000000000000000000000000000000000000000000000000000000000000000000000000000000000000000000000000000000000000000
21929I0165801O96586750313                                                                                                                                                      AES ANDRES B V SR NT REG                     US                                          9900000000000000000000000000000986760000000000000000000000000000000000000000000000000000000000000000000000000000000000000000000000000000000000000000000000000000000000000000000000000000000000000000000000
21929I0165801O96586750313                                                                                                                                                      CENCOSUD SA GTD SR NT                        US                                          9900000000000000000000000000000972726000000000000000000000000000000000000000000000000000000000000000000000000000000000000000000000000000000000000000000000000000000000000000000000000000000000000000000000
21929I0165801O96586750313                                                                                                                                                      CORPORACION FINANCIERA                       US                                          9900000000000000000000000000000961376000000000000000000000000000000000000000000000000000000000000000000000000000000000000000000000000000000000000000000000000000000000000000000000000000000000000000000000
21929I0165801O96586750313                                                                                                                                                      UNITED MEXICAN STS SR NT                     US                                          9900000000000000000000000000000959868000000000000000000000000000000000000000000000000000000000000000000000000000000000000000000000000000000000000000000000000000000000000000000000000000000000000000000000
21929I0165801O96586750313                                                                                                                                                      HSBC HLDGS PLC PERP SUB CONT C               US                                          9900000000000000000000000000000958692000000000000000000000000000000000000000000000000000000000000000000000000000000000000000000000000000000000000000000000000000000000000000000000000000000000000000000000
21929I0165801O96586750313                                                                                                                                                      CK HUTCHISON INTL 23LTD GTD NT               US                                          9900000000000000000000000000000957815000000000000000000000000000000000000000000000000000000000000000000000000000000000000000000000000000000000000000000000000000000000000000000000000000000000000000000000
21929I0165801O96586750313                                                                                                                                                      NATURA CO LUXEMBOURG                         US                                          9900000000000000000000000000000940273000000000000000000000000000000000000000000000000000000000000000000000000000000000000000000000000000000000000000000000000000000000000000000000000000000000000000000000
21929I0165801O96586750313                                                                                                                                                      PANAMA REP NTS ISINUS698                     US                                          9900000000000000000000000000000935010000000000000000000000000000000000000000000000000000000000000000000000000000000000000000000000000000000000000000000000000000000000000000000000000000000000000000000000
21929I0165801O96586750313                                                                                                                                                      ITAU UNIBANCO HOLDING S                      US                                          9900000000000000000000000000000930624000000000000000000000000000000000000000000000000000000000000000000000000000000000000000000000000000000000000000000000000000000000000000000000000000000000000000000000
21929I0165801O96586750313                                                                                                                                                      PETROBRAS GLOBAL FINANCE B V I               US                                          9900000000000000000000000000000927361000000000000000000000000000000000000000000000000000000000000000000000000000000000000000000000000000000000000000000000000000000000000000000000000000000000000000000000
21929I0165801O96586750313                                                                                                                                                      CSN RESOURCES S A GTD NT REG                 US                                          9900000000000000000000000000000926063000000000000000000000000000000000000000000000000000000000000000000000000000000000000000000000000000000000000000000000000000000000000000000000000000000000000000000000
21929I0165801O96586750313                                                                                                                                                      UNITED STS TREAS BILLS                       US                                          9900000000000000000000000000000917310000000000000000000000000000000000000000000000000000000000000000000000000000000000000000000000000000000000000000000000000000000000000000000000000000000000000000000000
21929I0165801O96586750313                                                                                                                                                      UNITED STATES TREAS BILLS                    US                                          9900000000000000000000000000000906328000000000000000000000000000000000000000000000000000000000000000000000000000000000000000000000000000000000000000000000000000000000000000000000000000000000000000000000
21929I0165801O96586750313                                                                                                                                                      CK HUTCHISON INTL 23LTD GTD NT               US                                          9900000000000000000000000000000901679000000000000000000000000000000000000000000000000000000000000000000000000000000000000000000000000000000000000000000000000000000000000000000000000000000000000000000000
21929I0165801O96586750313                                                                                                                                                      BANCOLOMBIA SA ISINUS059                     US                                          9900000000000000000000000000000895478000000000000000000000000000000000000000000000000000000000000000000000000000000000000000000000000000000000000000000000000000000000000000000000000000000000000000000000
21929I0165801O96586750313                                                                                                                                                      YPF SA ISINUSP98                             US                                          9900000000000000000000000000000892908000000000000000000000000000000000000000000000000000000000000000000000000000000000000000000000000000000000000000000000000000000000000000000000000000000000000000000000
21929I0165801O96586750313                                                                                                                                                      PHILIPPINES REP GLOBAL BD                    US                                          9900000000000000000000000000000891154000000000000000000000000000000000000000000000000000000000000000000000000000000000000000000000000000000000000000000000000000000000000000000000000000000000000000000000
21929I0165801O96586750313                                                                                                                                                      CELULOSA ARAUCO Y CONSTITUCI                 US                                          9900000000000000000000000000000877997000000000000000000000000000000000000000000000000000000000000000000000000000000000000000000000000000000000000000000000000000000000000000000000000000000000000000000000
21929I0165801O96586750313                                                                                                                                                      ALLY FINL INC PERP PFD SER B                 US                                          9900000000000000000000000000000877120000000000000000000000000000000000000000000000000000000000000000000000000000000000000000000000000000000000000000000000000000000000000000000000000000000000000000000000
21929I0165801O96586750313                                                                                                                                                      REPUBLIC OF NORTH MACEDONIA                  US                                          9900000000000000000000000000000856946000000000000000000000000000000000000000000000000000000000000000000000000000000000000000000000000000000000000000000000000000000000000000000000000000000000000000000000
21929I0165801O96586750313                                                                                                                                                      NEXA RESOURCES S A REG S BOND                US                                          9900000000000000000000000000000851684000000000000000000000000000000000000000000000000000000000000000000000000000000000000000000000000000000000000000000000000000000000000000000000000000000000000000000000
21929I0165801O96586750313                                                                                                                                                      BANCO INTERNACIONAL DEL PERU S               US                                          9900000000000000000000000000000849052000000000000000000000000000000000000000000000000000000000000000000000000000000000000000000000000000000000000000000000000000000000000000000000000000000000000000000000
21929I0165801O96586750313                                                                                                                                                      CAP SA REG S BOND ISINUSP23                  US                                          9900000000000000000000000000000849052000000000000000000000000000000000000000000000000000000000000000000000000000000000000000000000000000000000000000000000000000000000000000000000000000000000000000000000
21929I0165801O96586750313                                                                                                                                                      INFRAESTRUCTURA ENERGETICA                   US                                          9900000000000000000000000000000849052000000000000000000000000000000000000000000000000000000000000000000000000000000000000000000000000000000000000000000000000000000000000000000000000000000000000000000000
21929I0165801O96586750313                                                                                                                                                      INVERSIONES CMPC SA REG S BOND               US                                          9900000000000000000000000000000849052000000000000000000000000000000000000000000000000000000000000000000000000000000000000000000000000000000000000000000000000000000000000000000000000000000000000000000000
21929I0165801O96586750313                                                                                                                                                      ITAU UNIBANCO HOLDING S                      US                                          9900000000000000000000000000000849052000000000000000000000000000000000000000000000000000000000000000000000000000000000000000000000000000000000000000000000000000000000000000000000000000000000000000000000
21929I0165801O96586750313                                                                                                                                                      OPERADORA DE SERVICIOS                       US                                          9900000000000000000000000000000822300000000000000000000000000000000000000000000000000000000000000000000000000000000000000000000000000000000000000000000000000000000000000000000000000000000000000000000000
21929I0165801O96586750313                                                                                                                                                      CIA DE MINAS BUENAVENTU                      US                                          9900000000000000000000000000000810020000000000000000000000000000000000000000000000000000000000000000000000000000000000000000000000000000000000000000000000000000000000000000000000000000000000000000000000
21929I0165801O96586750313                                                                                                                                                      INVESTMENT ENERGY RES LTD SR                 US                                          9900000000000000000000000000000794232000000000000000000000000000000000000000000000000000000000000000000000000000000000000000000000000000000000000000000000000000000000000000000000000000000000000000000000
21929I0165801O96586750313                                                                                                                                                      ELECTRICIDAD FIRME DE MEXICO                 US                                          9900000000000000000000000000000794232000000000000000000000000000000000000000000000000000000000000000000000000000000000000000000000000000000000000000000000000000000000000000000000000000000000000000000000
21929I0165801O96586750313                                                                                                                                                      INVERSIONES ATLANTIDATLANTID S               US                                          9900000000000000000000000000000794232000000000000000000000000000000000000000000000000000000000000000000000000000000000000000000000000000000000000000000000000000000000000000000000000000000000000000000000
21929I0165801O96586750313                                                                                                                                                      LIGHT SERVICOS DE ELECTRICID                 US                                          9900000000000000000000000000000794232000000000000000000000000000000000000000000000000000000000000000000000000000000000000000000000000000000000000000000000000000000000000000000000000000000000000000000000
21929I0165801O96586750313                                                                                                                                                      BANCO MERCANTIL DEL NORTH S A                US                                          9900000000000000000000000000000785900000000000000000000000000000000000000000000000000000000000000000000000000000000000000000000000000000000000000000000000000000000000000000000000000000000000000000000000
21929I0165801O96586750313                                                                                                                                                      INDONESIA REP BD                             US                                          9900000000000000000000000000000750815000000000000000000000000000000000000000000000000000000000000000000000000000000000000000000000000000000000000000000000000000000000000000000000000000000000000000000000
21929I0165801O96586750313                                                                                                                                                      EMPRESA NACIONAL DELPETROLEO N               US                                          9900000000000000000000000000000742921000000000000000000000000000000000000000000000000000000000000000000000000000000000000000000000000000000000000000000000000000000000000000000000000000000000000000000000
21929I0165801O96586750313                                                                                                                                                      ANTOFAGASTA PLC SR NT REG                    US                                          9900000000000000000000000000000729159000000000000000000000000000000000000000000000000000000000000000000000000000000000000000000000000000000000000000000000000000000000000000000000000000000000000000000000
21929I0165801O96586750313                                                                                                                                                      INFRAESTRUCTURA ENERGETICA                   US                                          9900000000000000000000000000000708713000000000000000000000000000000000000000000000000000000000000000000000000000000000000000000000000000000000000000000000000000000000000000000000000000000000000000000000
21929I0165801O96586750313                                                                                                                                                      ECOPETROL S A NT 6875 04                     US                                          9900000000000000000000000000000686934000000000000000000000000000000000000000000000000000000000000000000000000000000000000000000000000000000000000000000000000000000000000000000000000000000000000000000000
21929I0165801O96586750313                                                                                                                                                      UNITED STATES TREAS BILLS                    US                                          9900000000000000000000000000000684162000000000000000000000000000000000000000000000000000000000000000000000000000000000000000000000000000000000000000000000000000000000000000000000000000000000000000000000
21929I0165801O96586750313                                                                                                                                                      BANCOLOMBIA SA SR NT                         US                                          9900000000000000000000000000000660471000000000000000000000000000000000000000000000000000000000000000000000000000000000000000000000000000000000000000000000000000000000000000000000000000000000000000000000
21929I0165801O96586750313                                                                                                                                                      INVERSIONES CMPC SA GTD NT REG               US                                          9900000000000000000000000000000652656000000000000000000000000000000000000000000000000000000000000000000000000000000000000000000000000000000000000000000000000000000000000000000000000000000000000000000000
21929I0165801O96586750313                                                                                                                                                      PETROBRAS GLOBAL FINANCE B                   US                                          9900000000000000000000000000000629772000000000000000000000000000000000000000000000000000000000000000000000000000000000000000000000000000000000000000000000000000000000000000000000000000000000000000000000
21929I0165801O96586750313                                                                                                                                                      ENFRAGEN ENERGIA SURS A U PRIM               US                                          9900000000000000000000000000000629772000000000000000000000000000000000000000000000000000000000000000000000000000000000000000000000000000000000000000000000000000000000000000000000000000000000000000000000
21929I0165801O96586750313                                                                                                                                                      INVERSIONES CMPC SA GTD NT REG               US                                          9900000000000000000000000000000629772000000000000000000000000000000000000000000000000000000000000000000000000000000000000000000000000000000000000000000000000000000000000000000000000000000000000000000000
21929I0165801O96586750313                                                                                                                                                      UNITED STS TREAS NTS 4875 11                 US                                          9900000000000000000000000000000617071000000000000000000000000000000000000000000000000000000000000000000000000000000000000000000000000000000000000000000000000000000000000000000000000000000000000000000000
21929I0165801O96586750313                                                                                                                                                      GRUPO AVAL LTD SR NTREG S                    US                                          9900000000000000000000000000000610967000000000000000000000000000000000000000000000000000000000000000000000000000000000000000000000000000000000000000000000000000000000000000000000000000000000000000000000
21929I0165801O96586750313                                                                                                                                                      ITAU UNIBANCO HOLDING SA                     US                                          9900000000000000000000000000000603459000000000000000000000000000000000000000000000000000000000000000000000000000000000000000000000000000000000000000000000000000000000000000000000000000000000000000000000
21929I0165801O96586750313                                                                                                                                                      UNITED STS TREAS BILLS                       US                                          9900000000000000000000000000000588855000000000000000000000000000000000000000000000000000000000000000000000000000000000000000000000000000000000000000000000000000000000000000000000000000000000000000000000
21929I0165801O96586750313                                                                                                                                                      UNITED STS TREAS BILLS                       US                                          9900000000000000000000000000000572180000000000000000000000000000000000000000000000000000000000000000000000000000000000000000000000000000000000000000000000000000000000000000000000000000000000000000000000
21929I0165801O96586750313                                                                                                                                                      UEP PENONOME II S A GTD SR SEC               US                                          9900000000000000000000000000000568961000000000000000000000000000000000000000000000000000000000000000000000000000000000000000000000000000000000000000000000000000000000000000000000000000000000000000000000
21929I0165801O96586750313                                                                                                                                                      FORD MTR CO DEL FXD RT SR NT                 US                                          9900000000000000000000000000000564102000000000000000000000000000000000000000000000000000000000000000000000000000000000000000000000000000000000000000000000000000000000000000000000000000000000000000000000
21929I0165801O96586750313                                                                                                                                                      ITAU UNIBANCO HOLDING SA                     US                                          9900000000000000000000000000000559603000000000000000000000000000000000000000000000000000000000000000000000000000000000000000000000000000000000000000000000000000000000000000000000000000000000000000000000
21929I0165801O96586750313                                                                                                                                                      CIBANCO SA INSTITUCIO                        US                                          9900000000000000000000000000000548200000000000000000000000000000000000000000000000000000000000000000000000000000000000000000000000000000000000000000000000000000000000000000000000000000000000000000000000
21929I0165801O96586750313                                                                                                                                                      NBM US HOLDINGS INC SR NT REG                US                                          9900000000000000000000000000000547323000000000000000000000000000000000000000000000000000000000000000000000000000000000000000000000000000000000000000000000000000000000000000000000000000000000000000000000
21929I0165801O96586750313                                                                                                                                                      PETROBRAS GLOBAL FIN BV GTD                  US                                          9900000000000000000000000000000525395000000000000000000000000000000000000000000000000000000000000000000000000000000000000000000000000000000000000000000000000000000000000000000000000000000000000000000000
21929I0165801O96586750313                                                                                                                                                      ING GROEP NV PERP ISINUS456                  US                                          9900000000000000000000000000000524518000000000000000000000000000000000000000000000000000000000000000000000000000000000000000000000000000000000000000000000000000000000000000000000000000000000000000000000
21929I0165801O96586750313                                                                                                                                                      BANCO MERCANTIL DEL NORTE SA B               US                                          9900000000000000000000000000000520132000000000000000000000000000000000000000000000000000000000000000000000000000000000000000000000000000000000000000000000000000000000000000000000000000000000000000000000
21929I0165801O96586750313                                                                                                                                                      BANCOLOMBIA SA ISINUS059                     US                                          9900000000000000000000000000000517615000000000000000000000000000000000000000000000000000000000000000000000000000000000000000000000000000000000000000000000000000000000000000000000000000000000000000000000
21929I0165801O96586750313                                                                                                                                                      ENEL CHILE S A NT                            US                                          9900000000000000000000000000000512396000000000000000000000000000000000000000000000000000000000000000000000000000000000000000000000000000000000000000000000000000000000000000000000000000000000000000000000
21929I0165801O96586750313                                                                                                                                                      UNITED STATES TREAS BDS                      US                                          9900000000000000000000000000000504993000000000000000000000000000000000000000000000000000000000000000000000000000000000000000000000000000000000000000000000000000000000000000000000000000000000000000000000
21929I0165801O96586750313                                                                                                                                                      UNITED STS TREAS BILLS                       US                                          9900000000000000000000000000000497538000000000000000000000000000000000000000000000000000000000000000000000000000000000000000000000000000000000000000000000000000000000000000000000000000000000000000000000
21929I0165801O96586750313                                                                                                                                                      GRUPO KUO SAB DE CV SR NT REG                US                                          9900000000000000000000000000000485924000000000000000000000000000000000000000000000000000000000000000000000000000000000000000000000000000000000000000000000000000000000000000000000000000000000000000000000
21929I0165801O96586750313                                                                                                                                                      TERMOCANDELARIA PWR LTD GTD NT               US                                          9900000000000000000000000000000481758000000000000000000000000000000000000000000000000000000000000000000000000000000000000000000000000000000000000000000000000000000000000000000000000000000000000000000000
21929I0165801O96586750313                                                                                                                                                      KALLPA GENERACION SASR NT REG                US                                          9900000000000000000000000000000481539000000000000000000000000000000000000000000000000000000000000000000000000000000000000000000000000000000000000000000000000000000000000000000000000000000000000000000000
21929I0165801O96586750313                                                                                                                                                      REPUBLIK BULGARIEN ISINXS271                 US                                          9900000000000000000000000000000457857000000000000000000000000000000000000000000000000000000000000000000000000000000000000000000000000000000000000000000000000000000000000000000000000000000000000000000000
21929I0165801O96586750313                                                                                                                                                      UNICREDIT SPA ISINXS104                      US                                          9900000000000000000000000000000457857000000000000000000000000000000000000000000000000000000000000000000000000000000000000000000000000000000000000000000000000000000000000000000000000000000000000000000000
21929I0165801O96586750313                                                                                                                                                      GOLDMAN SACHS BDC INC SR NT                  US                                          9900000000000000000000000000000454348000000000000000000000000000000000000000000000000000000000000000000000000000000000000000000000000000000000000000000000000000000000000000000000000000000000000000000000
21929I0165801O96586750313                                                                                                                                                      UNITED STS TREAS BILLS                       US                                          9900000000000000000000000000000449612000000000000000000000000000000000000000000000000000000000000000000000000000000000000000000000000000000000000000000000000000000000000000000000000000000000000000000000
21929I0165801O96586750313                                                                                                                                                      MORGAN STANLEY SUB NT SER F F                US                                          9900000000000000000000000000000435929000000000000000000000000000000000000000000000000000000000000000000000000000000000000000000000000000000000000000000000000000000000000000000000000000000000000000000000
21929I0165801O96586750313                                                                                                                                                      ITAU UNIBANCO HOLDING SA                     US                                          9900000000000000000000000000000410492000000000000000000000000000000000000000000000000000000000000000000000000000000000000000000000000000000000000000000000000000000000000000000000000000000000000000000000
21929I0165801O96586750313                                                                                                                                                      MILLICOM INTL CELLULAR S                     US                                          9900000000000000000000000000000398309000000000000000000000000000000000000000000000000000000000000000000000000000000000000000000000000000000000000000000000000000000000000000000000000000000000000000000000
21929I0165801O96586750313                                                                                                                                                      FRIGORIFICO CONCEPCION                       US                                          9900000000000000000000000000000383082000000000000000000000000000000000000000000000000000000000000000000000000000000000000000000000000000000000000000000000000000000000000000000000000000000000000000000000
21929I0165801O96586750313                                                                                                                                                      BRAZIL FEDERATIVE REP BND                    US                                          9900000000000000000000000000000381109000000000000000000000000000000000000000000000000000000000000000000000000000000000000000000000000000000000000000000000000000000000000000000000000000000000000000000000
21929I0165801O96586750313                                                                                                                                                      UNITED STATES TREAS BILLS                    US                                          9900000000000000000000000000000369250000000000000000000000000000000000000000000000000000000000000000000000000000000000000000000000000000000000000000000000000000000000000000000000000000000000000000000000
21929I0165801O96586750313                                                                                                                                                      UNITED STS TREAS BILLS                       US                                          9900000000000000000000000000000368347000000000000000000000000000000000000000000000000000000000000000000000000000000000000000000000000000000000000000000000000000000000000000000000000000000000000000000000
21929I0165801O96586750313                                                                                                                                                      CITIGROUP INC 5610 09                        US                                          9900000000000000000000000000000367075000000000000000000000000000000000000000000000000000000000000000000000000000000000000000000000000000000000000000000000000000000000000000000000000000000000000000000000
21929I0165801O96586750313                                                                                                                                                      BANCO SANTANDER MEXICO SA                    US                                          9900000000000000000000000000000345629000000000000000000000000000000000000000000000000000000000000000000000000000000000000000000000000000000000000000000000000000000000000000000000000000000000000000000000
21929I0165801O96586750313                                                                                                                                                      BRASKEM IDESA SAPI REG S BOND                US                                          9900000000000000000000000000000340323000000000000000000000000000000000000000000000000000000000000000000000000000000000000000000000000000000000000000000000000000000000000000000000000000000000000000000000
21929I0165801O96586750313                                                                                                                                                      BARCLAYS PLC RESETTING                       US                                          9900000000000000000000000000000340323000000000000000000000000000000000000000000000000000000000000000000000000000000000000000000000000000000000000000000000000000000000000000000000000000000000000000000000
21929I0165801O96586750313                                                                                                                                                      SOUTHERN COPPER CORPDEL SR UNS               US                                          9900000000000000000000000000000309623000000000000000000000000000000000000000000000000000000000000000000000000000000000000000000000000000000000000000000000000000000000000000000000000000000000000000000000
21929I0165801O96586750313                                                                                                                                                      UNITED STATES TREAS BILLS                    US                                          9900000000000000000000000000000305018000000000000000000000000000000000000000000000000000000000000000000000000000000000000000000000000000000000000000000000000000000000000000000000000000000000000000000000
21929I0165801O96586750313                                                                                                                                                      UNITED STATES TREAS BILLS                    US                                          9900000000000000000000000000000295563000000000000000000000000000000000000000000000000000000000000000000000000000000000000000000000000000000000000000000000000000000000000000000000000000000000000000000000
21929I0165801O96586750313                                                                                                                                                      PERU LNG S R L SR NT REG                     US                                          9900000000000000000000000000000293248000000000000000000000000000000000000000000000000000000000000000000000000000000000000000000000000000000000000000000000000000000000000000000000000000000000000000000000
21929I0165801O96586750313                                                                                                                                                      ECOPETROL S A NT                             US                                          9900000000000000000000000000000281117000000000000000000000000000000000000000000000000000000000000000000000000000000000000000000000000000000000000000000000000000000000000000000000000000000000000000000000
21929I0165801O96586750313                                                                                                                                                      MINERVA LUXEMBOURG SA REG S B                US                                          9900000000000000000000000000000278924000000000000000000000000000000000000000000000000000000000000000000000000000000000000000000000000000000000000000000000000000000000000000000000000000000000000000000000
21929I0165801O96586750313                                                                                                                                                      CIA DE MINAS BUENAVENTU                      US                                          9900000000000000000000000000000278266000000000000000000000000000000000000000000000000000000000000000000000000000000000000000000000000000000000000000000000000000000000000000000000000000000000000000000000
21929I0165801O96586750313                                                                                                                                                      BAYER US FIN II LLC GTD NT REG               US                                          9900000000000000000000000000000272574000000000000000000000000000000000000000000000000000000000000000000000000000000000000000000000000000000000000000000000000000000000000000000000000000000000000000000000
21929I0165801O96586750313                                                                                                                                                      INVERSIONES CMPC SA NTS REG S                US                                          9900000000000000000000000000000269074000000000000000000000000000000000000000000000000000000000000000000000000000000000000000000000000000000000000000000000000000000000000000000000000000000000000000000000
21929I0165801O96586750313                                                                                                                                                      MARKS AND SPENCER PLC 7 18                   US                                          9900000000000000000000000000000268399000000000000000000000000000000000000000000000000000000000000000000000000000000000000000000000000000000000000000000000000000000000000000000000000000000000000000000000
21929I0165801O96586750313                                                                                                                                                      UNITED STATES TREAS BDS                      US                                          9900000000000000000000000000000263557000000000000000000000000000000000000000000000000000000000000000000000000000000000000000000000000000000000000000000000000000000000000000000000000000000000000000000000
21929I0165801O96586750313                                                                                                                                                      UKRAINE GOVERMENT ISINXS201                  US                                          9900000000000000000000000000000263136000000000000000000000000000000000000000000000000000000000000000000000000000000000000000000000000000000000000000000000000000000000000000000000000000000000000000000000
21929I0165801O96586750313                                                                                                                                                      UNITED STS TREAS BILLS                       US                                          9900000000000000000000000000000249567000000000000000000000000000000000000000000000000000000000000000000000000000000000000000000000000000000000000000000000000000000000000000000000000000000000000000000000
21929I0165801O96586750313                                                                                                                                                      BANC CREDITO INVERSIONE                      US                                          9900000000000000000000000000000243550000000000000000000000000000000000000000000000000000000000000000000000000000000000000000000000000000000000000000000000000000000000000000000000000000000000000000000000
21929I0165801O96586750313                                                                                                                                                      CORPORACION NACIONALDEL COBRE                US                                          9900000000000000000000000000000243182000000000000000000000000000000000000000000000000000000000000000000000000000000000000000000000000000000000000000000000000000000000000000000000000000000000000000000000
21929I0165801O96586750313                                                                                                                                                      MERCURY CHILE HOLDCOLLC                      US                                          9900000000000000000000000000000235068000000000000000000000000000000000000000000000000000000000000000000000000000000000000000000000000000000000000000000000000000000000000000000000000000000000000000000000
21929I0165801O96586750313                                                                                                                                                      AES ANDES SA ISINUSP06                       US                                          9900000000000000000000000000000218622000000000000000000000000000000000000000000000000000000000000000000000000000000000000000000000000000000000000000000000000000000000000000000000000000000000000000000000
21929I0165801O96586750313                                                                                                                                                      KALLPA GENERACION SASR NT REG                US                                          9900000000000000000000000000000216210000000000000000000000000000000000000000000000000000000000000000000000000000000000000000000000000000000000000000000000000000000000000000000000000000000000000000000000
21929I0165801O96586750313                                                                                                                                                      BANCO MERCANTIL DEL NORTH S A                US                                          9900000000000000000000000000000215035000000000000000000000000000000000000000000000000000000000000000000000000000000000000000000000000000000000000000000000000000000000000000000000000000000000000000000000
21929I0165801O96586750313                                                                                                                                                      GENERAL MTRS CO FXD RT SR NT                 US                                          9900000000000000000000000000000214579000000000000000000000000000000000000000000000000000000000000000000000000000000000000000000000000000000000000000000000000000000000000000000000000000000000000000000000
21929I0165801O96586750313                                                                                                                                                      COLOMBIA TELECOMUNI                          US                                          9900000000000000000000000000000201299000000000000000000000000000000000000000000000000000000000000000000000000000000000000000000000000000000000000000000000000000000000000000000000000000000000000000000000
21929I0165801O96586750313                                                                                                                                                      PETROLEOS MEXICANOS PEMEX                    US                                          9900000000000000000000000000000196913000000000000000000000000000000000000000000000000000000000000000000000000000000000000000000000000000000000000000000000000000000000000000000000000000000000000000000000
21929I0165801O96586750313                                                                                                                                                      UNITED STATES TREAS BILLS                    US                                          9900000000000000000000000000000192203000000000000000000000000000000000000000000000000000000000000000000000000000000000000000000000000000000000000000000000000000000000000000000000000000000000000000000000
21929I0165801O96586750313                                                                                                                                                      ENERGUATE TR GTD SR NT REG S                 US                                          9900000000000000000000000000000191212000000000000000000000000000000000000000000000000000000000000000000000000000000000000000000000000000000000000000000000000000000000000000000000000000000000000000000000
21929I0165801O96586750313                                                                                                                                                      BANCO DAVIVIENDA S AJR SUB NT                US                                          9900000000000000000000000000000188239000000000000000000000000000000000000000000000000000000000000000000000000000000000000000000000000000000000000000000000000000000000000000000000000000000000000000000000
21929I0165801O96586750313                                                                                                                                                      FEDERATIVE REPUBLIC OF BRAZIL                US                                          9900000000000000000000000000000182441000000000000000000000000000000000000000000000000000000000000000000000000000000000000000000000000000000000000000000000000000000000000000000000000000000000000000000000
21929I0165801O96586750313                                                                                                                                                      UNITED STS TREAS BILLS                       US                                          9900000000000000000000000000000176012000000000000000000000000000000000000000000000000000000000000000000000000000000000000000000000000000000000000000000000000000000000000000000000000000000000000000000000
21929I0165801O96586750313                                                                                                                                                      UNITED STATES TREAS BILLS                    US                                          9900000000000000000000000000000171082000000000000000000000000000000000000000000000000000000000000000000000000000000000000000000000000000000000000000000000000000000000000000000000000000000000000000000000
21929I0165801O96586750313                                                                                                                                                      BANCO SANTANDER SA 6921 08                   US                                          9900000000000000000000000000000170600000000000000000000000000000000000000000000000000000000000000000000000000000000000000000000000000000000000000000000000000000000000000000000000000000000000000000000000
21929I0165801O96586750313                                                                                                                                                      ENEL GENERACION CHILE SA                     US                                          9900000000000000000000000000000163144000000000000000000000000000000000000000000000000000000000000000000000000000000000000000000000000000000000000000000000000000000000000000000000000000000000000000000000
21929I0165801O96586750313                                                                                                                                                      BANISTMO S A SR NT REG                       US                                          9900000000000000000000000000000163144000000000000000000000000000000000000000000000000000000000000000000000000000000000000000000000000000000000000000000000000000000000000000000000000000000000000000000000
21929I0165801O96586750313                                                                                                                                                      UNITED STATES TREAS BILLS                    US                                          9900000000000000000000000000000159873000000000000000000000000000000000000000000000000000000000000000000000000000000000000000000000000000000000000000000000000000000000000000000000000000000000000000000000
21929I0165801O96586750313                                                                                                                                                      BANCOLOMBIA SA ISINUS059                     US                                          9900000000000000000000000000000156636000000000000000000000000000000000000000000000000000000000000000000000000000000000000000000000000000000000000000000000000000000000000000000000000000000000000000000000
21929I0165801O96586750313                                                                                                                                                      TRANSPORTADORA DE GAS INTERN                 US                                          9900000000000000000000000000000150724000000000000000000000000000000000000000000000000000000000000000000000000000000000000000000000000000000000000000000000000000000000000000000000000000000000000000000000
21929I0165801O96586750313                                                                                                                                                      UNITED STATES TREAS BDS                      US                                          9900000000000000000000000000000149435000000000000000000000000000000000000000000000000000000000000000000000000000000000000000000000000000000000000000000000000000000000000000000000000000000000000000000000
21929I0165801O96586750313                                                                                                                                                      UNITED STS TREAS NTS 2875 05                 US                                          9900000000000000000000000000000147733000000000000000000000000000000000000000000000000000000000000000000000000000000000000000000000000000000000000000000000000000000000000000000000000000000000000000000000
21929I0165801O96586750313                                                                                                                                                      B3 S A BRASIL BOLSA BALCAO NT                US                                          9900000000000000000000000000000136392000000000000000000000000000000000000000000000000000000000000000000000000000000000000000000000000000000000000000000000000000000000000000000000000000000000000000000000
21929I0165801O96586750313                                                                                                                                                      UNITED STATES TREAS BDS                      US                                          9900000000000000000000000000000131647000000000000000000000000000000000000000000000000000000000000000000000000000000000000000000000000000000000000000000000000000000000000000000000000000000000000000000000
21929I0165801O96586750313                                                                                                                                                      UNITED STS TREAS BILLS                       US                                          9900000000000000000000000000000131533000000000000000000000000000000000000000000000000000000000000000000000000000000000000000000000000000000000000000000000000000000000000000000000000000000000000000000000
21929I0165801O96586750313                                                                                                                                                      UNITED STS TREAS BILLS                       US                                          9900000000000000000000000000000126639000000000000000000000000000000000000000000000000000000000000000000000000000000000000000000000000000000000000000000000000000000000000000000000000000000000000000000000
21929I0165801O96586750313                                                                                                                                                      UNITED STATES TREAS BILLS                    US                                          9900000000000000000000000000000124674000000000000000000000000000000000000000000000000000000000000000000000000000000000000000000000000000000000000000000000000000000000000000000000000000000000000000000000
21929I0165801O96586750313                                                                                                                                                      SANTANDER ISSUANCES EURO MEDIU               US                                          9900000000000000000000000000000116657000000000000000000000000000000000000000000000000000000000000000000000000000000000000000000000000000000000000000000000000000000000000000000000000000000000000000000000
21929I0165801O96586750313                                                                                                                                                      UNITED STATES TREAS BILLS                    US                                          9900000000000000000000000000000115262000000000000000000000000000000000000000000000000000000000000000000000000000000000000000000000000000000000000000000000000000000000000000000000000000000000000000000000
21929I0165801O96586750313                                                                                                                                                      BRAZIL FEDERATIVE REP GLOBAL                 US                                          9900000000000000000000000000000114903000000000000000000000000000000000000000000000000000000000000000000000000000000000000000000000000000000000000000000000000000000000000000000000000000000000000000000000
21929I0165801O96586750313                                                                                                                                                      UNITED MEXICAN STS SR NT                     US                                          9900000000000000000000000000000114026000000000000000000000000000000000000000000000000000000000000000000000000000000000000000000000000000000000000000000000000000000000000000000000000000000000000000000000
21929I0165801O96586750313                                                                                                                                                      CELULOSA ARAUCO Y CONSTITUCI                 US                                          9900000000000000000000000000000112271000000000000000000000000000000000000000000000000000000000000000000000000000000000000000000000000000000000000000000000000000000000000000000000000000000000000000000000
21929I0165801O96586750313                                                                                                                                                      UNITED STS TREAS NTS 3625 05                 US                                          9900000000000000000000000000000112175000000000000000000000000000000000000000000000000000000000000000000000000000000000000000000000000000000000000000000000000000000000000000000000000000000000000000000000
21929I0165801O96586750313                                                                                                                                                      UNITED STS TREAS BILLS                       US                                          9900000000000000000000000000000111333000000000000000000000000000000000000000000000000000000000000000000000000000000000000000000000000000000000000000000000000000000000000000000000000000000000000000000000
21929I0165801O96586750313                                                                                                                                                      UNITED STS TREAS BILLS                       US                                          9900000000000000000000000000000108965000000000000000000000000000000000000000000000000000000000000000000000000000000000000000000000000000000000000000000000000000000000000000000000000000000000000000000000
21929I0165801O96586750313                                                                                                                                                      UNITED STS TREAS BILLS                       US                                          9900000000000000000000000000000107570000000000000000000000000000000000000000000000000000000000000000000000000000000000000000000000000000000000000000000000000000000000000000000000000000000000000000000000
21929I0165801O96586750313                                                                                                                                                      UNITED STS TREAS BILLS                       US                                          9900000000000000000000000000000106009000000000000000000000000000000000000000000000000000000000000000000000000000000000000000000000000000000000000000000000000000000000000000000000000000000000000000000000
21929I0165801O96586750313                                                                                                                                                      UNITED STS TREAS BILLS                       US                                          9900000000000000000000000000000104342000000000000000000000000000000000000000000000000000000000000000000000000000000000000000000000000000000000000000000000000000000000000000000000000000000000000000000000
21929I0165801O96586750313                                                                                                                                                      UNITED STATES TREAS BDS                      US                                          9900000000000000000000000000000103912000000000000000000000000000000000000000000000000000000000000000000000000000000000000000000000000000000000000000000000000000000000000000000000000000000000000000000000
21929I0165801O96586750313                                                                                                                                                      VOLCAN COMPANIA MINERA SA                    US                                          9900000000000000000000000000000101746000000000000000000000000000000000000000000000000000000000000000000000000000000000000000000000000000000000000000000000000000000000000000000000000000000000000000000000
21929I0165801O96586750313                                                                                                                                                      UNITED STS TREAS BILLS                       US                                          9900000000000000000000000000000100167000000000000000000000000000000000000000000000000000000000000000000000000000000000000000000000000000000000000000000000000000000000000000000000000000000000000000000000
21929I0165801O96586750313                                                                                                                                                      UNITED STATES TREAS BILLS                    US                                          9900000000000000000000000000000097571000000000000000000000000000000000000000000000000000000000000000000000000000000000000000000000000000000000000000000000000000000000000000000000000000000000000000000000
21929I0165801O96586750313                                                                                                                                                      GLOBAL BANK CORP ISINUSP47                   US                                          9900000000000000000000000000000094729000000000000000000000000000000000000000000000000000000000000000000000000000000000000000000000000000000000000000000000000000000000000000000000000000000000000000000000
21929I0165801O96586750313                                                                                                                                                      FALABELLA SA ISINUSP82                       US                                          9900000000000000000000000000000094317000000000000000000000000000000000000000000000000000000000000000000000000000000000000000000000000000000000000000000000000000000000000000000000000000000000000000000000
21929I0165801O96586750313                                                                                                                                                      UNITED STS TREAS BILLS                       US                                          9900000000000000000000000000000092124000000000000000000000000000000000000000000000000000000000000000000000000000000000000000000000000000000000000000000000000000000000000000000000000000000000000000000000
21929I0165801O96586750313                                                                                                                                                      TRANSALTA CORP NTS NTS                       US                                          9900000000000000000000000000000091220000000000000000000000000000000000000000000000000000000000000000000000000000000000000000000000000000000000000000000000000000000000000000000000000000000000000000000000
21929I0165801O96586750313                                                                                                                                                      UNITED STATES TREAS BILLS                    US                                          9900000000000000000000000000000091089000000000000000000000000000000000000000000000000000000000000000000000000000000000000000000000000000000000000000000000000000000000000000000000000000000000000000000000
21929I0165801O96586750313                                                                                                                                                      UNITED STS TREAS BILLS                       US                                          9900000000000000000000000000000090606000000000000000000000000000000000000000000000000000000000000000000000000000000000000000000000000000000000000000000000000000000000000000000000000000000000000000000000
21929I0165801O96586750313                                                                                                                                                      UNITED STS TREAS NTS 5000 09                 US                                          9900000000000000000000000000000087730000000000000000000000000000000000000000000000000000000000000000000000000000000000000000000000000000000000000000000000000000000000000000000000000000000000000000000000
21929I0165801O96586750313                                                                                                                                                      UNITED STATES TREAS BILLS                    US                                          9900000000000000000000000000000087721000000000000000000000000000000000000000000000000000000000000000000000000000000000000000000000000000000000000000000000000000000000000000000000000000000000000000000000
21929I0165801O96586750313                                                                                                                                                      UNITED STS TREAS NTS 1625 05                 US                                          9900000000000000000000000000000087721000000000000000000000000000000000000000000000000000000000000000000000000000000000000000000000000000000000000000000000000000000000000000000000000000000000000000000000
